:1000000012C019C018C017C016C015C014C013C044
:1000100012C011C010C00FC00EC00DC00CC00BC06C
:100020000AC009C008C011241FBECFE5D4E0DEBF5E
:10003000CDBF18D02EC0E4CF3E9A3F983D98379A56
:1000400086B1856086B9089597B1907F97B997B1C9
:100050008F70892B87B9369A3699FECF24B135B186
:10006000C9010895CF93DF93BA9AE6DFC0E9D1E0E2
:1000700082E090E0E9DF8150924014F0C29A01C022
:10008000C29888EE93E0FE013197F1F7019781F372
:06009000FACFF894FFCF47
:00000001FF
