:1000000018C02AC029C028C027C026C025C024C0C7
:1000100023C022C021C020C01FC01EC01DC01CC0E4
:100020001BC01AC019C01F1C1F1E1F1E1F1F1E1F12
:100030001E1F11241FBECFE5D4E0DEBFCDBF10E0F0
:10004000A0E6B0E0ECE3FBE002C005900D92AE3814
:10005000B107D9F702D070C5D3CF2F923F924F92FC
:100060005F926F927F928F929F92AF92BF92CF9248
:10007000DF92EF92FF920F931F93DF93CF93CDB751
:10008000DEB7A6970FB6F894DEBF0FBECDBF14BA89
:100090008FEF87BB5DD27CD180E690E027D2789449
:1000A00019821A821B821C821D821E825CD21E0152
:1000B0000894211C311C07E0A02EB12CAC0EBD1EF3
:1000C0001BE6412E10E0512EB7E1CB2ED12CCC0EE9
:1000D000DD1EACE76A2EA0E07A2EF8EC8F2E912C74
:1000E000C101BE016E5F7F4FAE014D5F5F4F9E014C
:1000F0002C5F3F4F8E010B5F1F4FE6E0EE2EF12C81
:10010000EC0EFD1EDBD08DB79EB70A970FB6F894A4
:100110009EBF0FBE8DBFEDB7FEB73196ADB7BEB770
:100120001296BC92AE921197538242828B81848345
:1001300015828A818683178289818087118636D2CB
:10014000EDB7FEB73196ADB7BEB71296DC92CE9240
:100150001197738262828C81848315828D8186835C
:1001600017828E818087118621D28DB79EB70A961D
:100170000FB6F8949EBF0FBE8DBF81E061E0C8D17D
:10018000C501B4D181E062E0C3D1C601AFD180E145
:1001900097E2F4013197F1F70197D9F7A1CF282F12
:1001A0006AE0E4D196E0899FC0011124820F08958E
:1001B000282F50E0E6E2F0E091E005C08491480F7E
:1001C000511D9F5F31969617C8F3633040F0822F20
:1001D00090E083709070892B11F44F5F5F4F30E097
:1001E0008DE691E0BC01269FC001279F900D369FB0
:1001F000900D112405962D5F3F4F35952795359528
:100200002795820F931F840F951F67E070E0BAD186
:100210000895BF92CF92DF92EF92FF920F931F93B8
:10022000D82EF62E142FB22EC02E0E2D0C3308F021
:100230003CC08BE38C15C8F187E18217B0F14423F1
:10024000A1F1403290F5662381F18CE0861768F1C8
:1002500083E68D1550F1E62FF0E0EB5DFF4FE49162
:10026000E41710F480E022C08D2DA2DFE82E80ED8F
:10027000B7D080E0DBD0802F92DFD8D08C2D8FDFFD
:10028000D5D08B2D8CDFD2D08E2D89DFCFD0812F92
:1002900086DFCCD08F2D83DFC9D08D2D80DFC6D0F7
:1002A00080E0C4D0BDD081E001C088E01F910F91F3
:1002B000FF90EF90DF90CF90BF9008954F925F92A4
:1002C0006F927F928F929F92AF92BF92CF92DF9266
:1002D000EF92FF920F931F932C013B014A015901AA
:1002E000680180ED7DD080E0A1D09AD081ED96D0DC
:1002F000ABD08F77982F92959F700AEF1FEF909F4A
:10030000902D1124980FF70190839ED0982F9295ED
:100310009F70909F902D1124980FF601908394D098
:10032000982F92959F70909F902D1124980FF50112
:1003300090838AD089D0982F92959F70909F902D0E
:100340001124980FF40190837FD0982F92959F707D
:10035000909F902D1124980FF30190837CD0982FBB
:1003600092959F70909F902D1124980FF201908389
:1003700057D01F910F91FF90EF90DF90CF90BF90DB
:10038000AF909F908F907F906F905F904F90089567
:1003900004D08AE18A95F1F7089511B888E880B908
:1003A0000895982F84EA86BF06B607FEFDCF81B177
:1003B000887F883021F0803111F081E0089593B971
:1003C00084E886BF06B607FEFDCF91B1987F9831CD
:1003D00011F480E0089580E0903409F081E0089500
:1003E00044EA34E824E946BF06B607FEFDCF91B1E2
:1003F000987F983011F09031B1F783B936BF06B6C7
:1004000007FEFDCF91B1987F903211F0983529F415
:1004100026BF06B604FCFDCFE6CF0895C2DF0895DF
:1004200084E986BF06B604FCFDCF089583B984E84D
:1004300086BF06B607FEFDCF81B190E0887F883287
:1004400009F091E0892F089584EC86BF06B607FE77
:10045000FDCF83B1089584E886BF06B607FEFDCFC1
:1004600083B10895C29A98B3282F207F9F70292BBB
:1004700028BBC39A20ED37E0F9013197F1F7C39813
:10048000F9013197F1F798B39F708295807F982B8F
:1004900098BBC39AC9010197F1F7C398C9010197A5
:1004A000F1F780E090E00895C29898B3282F207F5C
:1004B0009F70292B28BBC39A20ED37E0F9013197B3
:1004C000F1F7C398F9013197F1F798B39F708295CE
:1004D000807F982B98BBC39AC9010197F1F7C39805
:1004E000C9010197F1F780E090E008951F93CF9341
:1004F000DF93EC0110E002C0B5DF1F5FFE01E10FEA
:10050000F11D80818823C1F7DF91CF911F9108955C
:10051000DF93CF9300D000D0CDB7DEB790E89983BA
:1005200090EC9A8394E99B8394ED9C838150FE0127
:10053000E60FF11D9081890FB7DF88EC90E00197FD
:10054000F1F70F900F900F900F90CF91DF910895DA
:1005500082E0AADF88E2A8DF8CE0A6DF81E0A4DFEA
:1005600086E0A2DF089581E09FDF0895991B79E07E
:1005700004C0991F961708F0961B881F7A95C9F733
:1005800080950895AA1BBB1B51E107C0AA1FBB1F82
:10059000A617B70710F0A61BB70B881F991F5A950F
:1005A000A9F780959095BC01CD010895AEE0B0E02B
:1005B000EBEDF2E098C20D891E8986E08C831A83E8
:1005C00009838FEF9FE79E838D839E01275E3F4FB8
:1005D000CE0101966F89788DA90109D02F813885C8
:1005E000020F131FF80110822E96E4E098C2ABE0D0
:1005F000B0E0ECEFF2E069C23C012B015A01FC01D2
:1006000017821682838181FD03C06FEF7FEFB9C12E
:100610009AE0892E1E010894211C311CF3012381CC
:10062000F20123FD859123FF81912F01882309F495
:10063000A5C1853239F423FD859123FF81912F01D6
:10064000853221F490E0B301B6D1E8CF982FFF2492
:10065000EE249924FFE1FF15D0F09B3269F09C3223
:1006600028F4903259F0933291F40EC09D3249F043
:10067000903369F441E024C052E0F52A84E0F82A7E
:1006800028C098E0F92A25C0E0E1FE2A22C0F7FC44
:1006900029C0892F80538A3070F4F6FE05C0989CDB
:1006A000902C1124980E15C0E89CE02C1124E80E23
:1006B000F0E2FF2A0EC09E3229F4F6FC5FC140E44E
:1006C000F42A07C09C3619F450E8F52A02C098367F
:1006D00049F4F20123FD959123FF91912F01992374
:1006E00009F0B8CF892F8554833018F080528330B9
:1006F00038F444E050E0A40EB51E5FE359830FC008
:10070000933631F0933779F0933509F052C01FC01A
:10071000F5018081898342E050E0A40EB51E61019D
:1007200001E010E011C0F501C080D180F6FC03C0EB
:100730006FEF7FEF02C0692D70E042E050E0A40E41
:10074000B51EC6012DD18C015FE7F52213C0F5015E
:10075000C080D180F6FC03C06FEF7FEF02C0692D2F
:1007600070E042E050E0A40EB51EC6010ED18C012F
:1007700050E8F52AF3FE06C018C080E290E0B3010D
:100780001AD1EA948E2D90E008171907B0F30DC026
:10079000F601F7FC8591F7FE81916F0190E0B301BE
:1007A0000AD1E110EA94015010400115110581F7BA
:1007B000E2C0943611F0993661F5F7FE08C0F501F4
:1007C000208131814281538184E090E00AC0F501AB
:1007D000808191819C01442737FD4095542F82E010
:1007E00090E0A80EB91E9FE6F92257FF09C0509568
:1007F0004095309521953F4F4F4F5F4FE0E8FE2ADF
:10080000CA01B901A1012AE030E001D1D82ED218E5
:100810003FC0953729F41F2D1F7E2AE030E01DC010
:100820001F2D197F9F3661F0903720F4983509F01D
:10083000A5C00FC0903739F0983709F09FC004C0A9
:1008400028E030E00AC0106114FD146020E130E0BF
:1008500004C014FD166020E132E017FF08C0F50166
:10086000608171818281938144E050E008C0F5018C
:1008700080819181BC0180E090E042E050E0A40ED4
:10088000B51EA101C4D0D82ED2188FE7F82EF122C0
:10089000F6FE0BC05EEFF522D91438F4F4FE07C063
:1008A000F2FC05C08FEEF82202C01D2D01C0192DEB
:1008B000F4FE0DC0FE01ED0DF11D8081803319F4B1
:1008C00099EEF92208C01F5FF2FE05C003C08F2D0C
:1008D000867809F01F5F0F2DF3FC13C0F0FE0EC0E9
:1008E0001E1510F09D2C0AC09D2C9E0C911A1E2DD9
:1008F00005C080E290E0B3015ED01F5F1E15C8F313
:1009000004C01E1510F4E11A01C0EE2404FF0EC04D
:1009100080E390E0B3014FD002FF1BC001FD03C094
:1009200088E790E00EC088E590E00BC0802F8678C5
:1009300081F001FF02C08BE201C080E2F7FC8DE292
:1009400090E0B30138D005C080E390E0B30133D02C
:100950009A94D914C8F3DA94F101ED0DF11D808158
:1009600090E0B30128D0DD20B1F705C080E290E02F
:10097000B30121D0EA94EE20C9F750CEF30166818D
:100980007781CB012B96E2E1BCC0FC010590615060
:1009900070400110D8F7809590958E0F9F1F089595
:1009A000FC016150704001900110D8F7809590953E
:1009B0008E0F9F1F08950F931F93CF93DF938C018A
:1009C000EB018B8181FF1BC082FF0DC02E813F8117
:1009D0008C819D812817390764F4E881F98101939E
:1009E000F983E88306C0E885F985802F0995892B6E
:1009F00031F48E819F8101969F838E8302C00FEF19
:100A00001FEFC801DF91CF911F910F910895FA0157
:100A1000AA27283051F1203181F1E8946F936E7F3D
:100A20006E5F7F4F8F4F9F4FAF4FB1E03ED0B4E02E
:100A30003CD0670F781F891F9A1FA11D680F791F6F
:100A40008A1F911DA11D6A0F711D811D911DA11D80
:100A500020D009F468943F912AE0269F1124301990
:100A6000305D3193DEF6CF010895462F4770405D2B
:100A70004193B3E00FD0C9F7F6CF462F4F70405DDA
:100A80004A3318F0495D31FD4052419302D0A9F735
:100A9000EACFB4E0A6959795879577956795BA952F
:100AA000C9F700976105710508959B01AC010A2EF5
:100AB00006945795479537952795BA95C9F7620FCC
:100AC000731F841F951FA01D08952F923F924F9270
:100AD0005F926F927F928F929F92AF92BF92CF92CE
:100AE000DF92EF92FF920F931F93CF93DF93CDB7D7
:100AF000DEB7CA1BDB0B0FB6F894DEBF0FBECDBF4F
:100B000009942A88398848885F846E847D848C841F
:100B10009B84AA84B984C884DF80EE80FD800C8128
:100B20001B81AA81B981CE0FD11D0FB6F894DEBF0B
:0C0B30000FBECDBFED010895F894FFCF7B
:100B3C00537461727475702E2E2E004441544520EE
:100B4C003A25642F25642F2564202000434C4F4305
:0E0B5C004B3A25643A25643A256420200000B7
:00000001FF
