:1000000012C021C020C01FC01EC01DC01CC01BC00C
:100010001AC019C018C017C016C015C014C013C02C
:1000200012C011C010C011241FBECFE5D4E0DEBF46
:10003000CDBF10E0A0E6B0E001C01D92A136B1072F
:10004000E1F736D064C0DCCF813039F0813018F070
:10005000823039F404C088E403C088E101C08CE038
:1000600080B97894089584EA86BF06B607FEFDCF6E
:1000700081B1887F883009F081B181E090E00895F6
:10008000880F83B984E886BF06B607FEFDCF81B12D
:1000900082E090E0089583B984E886BF06B607FE43
:1000A000FDCF81B184E090E0089584E986BF089592
:1000B0000F931F93CF93DF9382E0C6DF87B38760F0
:1000C00087BB1092600004E9C8ECD0E018B3CBDF26
:1000D000182B18BB18B380E2D3DF182B18BB18B34A
:1000E00080916000D8DF182B18BB06BF809160009C
:1000F0008F5F809360008F3F11F41092600088E85A
:1001000093E1FE013197F1F7019701F3FACFF894EB
:02011000FFCF1F
:00000001FF
