:1000000012C02CC02BC02AC029C028C027C026C0BF
:1000100025C047C123C0ECC021C020C01FC01EC0E6
:100020001DC01CC01BC011241FBECFE5D4E0DEBF25
:10003000CDBF10E0A0E6B0E0E8E9F4E002C0059032
:100040000D92A236B107D9F710E0A2E6B0E001C0E8
:100050001D92A338B107E1F750D11CC2D1CF813036
:1000600039F0813018F0823039F404C088E403C0DC
:1000700088E101C08CE080B97894089584EA86BF55
:1000800006B607FEFDCF81B1887F883049F081B187
:10009000887F803129F080916200816080936200C6
:1000A000809162000895880F83B984E886BF06B600
:1000B00007FEFDCF81B1887F883129F080916200F1
:1000C00082608093620080916200089583B984E821
:1000D00086BF06B607FEFDCF81B1887F883229F042
:1000E0008091620084608093620080916200089534
:1000F00084E986BF08959C0140E050E060E874E820
:100100008EE190E08AD12150304040405040CA01F9
:10011000B90122E030E040E050E07FD1899A30BD63
:1001200029B982E08BB988E98AB986E880BD83B7AE
:10013000816083BF89B7816089BF789408955D9B92
:10014000FECF8CB90895FC0104C05D9BFECF3196B3
:100150008CB980818823C9F7089590917400909399
:100160006400809175008093630020E030E0492FA7
:10017000552747FD5095415050400AC0F901EA58B3
:10018000FF4F8081F901E559FF4F80832F5F3F4F7B
:10019000241735079CF3089580E090E0FC01ED58AA
:1001A000FF4F1082019680319105C1F710926800CF
:1001B000109267000895CF93DF9360DF8091630012
:1001C00072DFC0E0D0E006C0FE01E559FF4F80813C
:1001D0007DDF219680916400992787FD9095019796
:1001E000C817D9078CF384E986BFDF91CF910895B2
:1001F0001F920F920FB60F9211242F933F938F935C
:100200009F93EF93FF932CB18091690090916A00C6
:10021000892BE1F5E0916700F0916800ED58FF4F00
:10022000208380916700909168001816190684F465
:10023000209174008091670090916800332727FD1A
:10024000309501972817390719F482E090E00DC026
:1002500080916700909168001816190654F48091F7
:100260007400813134F085E090E090936A008093CF
:1002700069008091670090916800019690936800F2
:10028000809367001092660010926500FF91EF91D5
:100290009F918F913F912F910F900FBE0F901F90C4
:1002A00018951F920F920FB60F9211248F939F9360
:1002B000809167009091680018161906BCF480912F
:1002C00065009091660001969093660080936500AA
:1002D00001978436910550F083E090E090936A0096
:1002E0008093690010926600109265009F918F9133
:1002F0000F900FBE0F901F901895CF92DF92EF9244
:10030000FF920F931F93CF93DF9380E895E2F3DE84
:1003100082E0A5DE8FE087BB3CEFC32EC1E0D0E0DA
:100320002DEFD22E04E010E09BEFE92E8AEFF82E9D
:100330008091690090916A008230910561F083306C
:1003400091051CF40197A1F73AC083309105E9F1BA
:10035000059771F74CC0C19A809173008F3FC9F423
:10036000FCDE80E090E0FC01ED58FF4F108201962A
:1003700080319105C1F710926800109267001BDF71
:10038000D0936A00C09369005D9BFECFFCB8C29A0F
:10039000CFCF80E090E0FC01ED58FF4F1082019636
:1003A00080319105C1F71092680010926700109398
:1003B0006A00009369005D9BFECFECB829C01092E3
:1003C0006A001092690018BAB3CF80E090E0FC0197
:1003D000ED58FF4F1082019680319105C1F71092C0
:1003E0006800109267005D9BFECFCCB811C080E022
:1003F00090E0FC01ED58FF4F10820196803191058D
:10040000C1F710926800109267005D9BFECFDCB8C8
:10041000D0936A00C09369008BCF97FB092E052605
:100420000ED057FD04D014D00AD0001C38F45095DB
:100430004095309521953F4F4F4F5F4F0895F6F708
:1004400090958095709561957F4F8F4F9F4F089540
:10045000A1E21A2EAA1BBB1BFD010DC0AA1FBB1FC8
:10046000EE1FFF1FA217B307E407F50720F0A21B3A
:10047000B30BE40BF50B661F771F881F991F1A94A7
:1004800069F760957095809590959B01AC01BD01D1
:08049000CF010895F894FFCF9D
:02049800FF0063
:00000001FF
