:1000000018C032C031C030C02FC02EC02DC02CC08F
:100010002BC02AC029C028C027C026C025C024C0A4
:1000200023C022C021C01F1C1F1E1F1E1F1F1E1FFA
:100030001E1F11241FBECFE5D4E0DEBFCDBF10E0F0
:10004000A0E6B0E0EAE9FAE002C005900D92A63B16
:10005000B107D9F710E0A6EBB0E001C01D92A63CB5
:10006000B107E1F7B2D217C5CBCF0895089508952F
:1000700008950895089508950895EF92FF920F93BB
:100080001F93DF93CF93CDB7DEB728970FB6F894C1
:10009000DEBF0FBECDBF8091B60090E08053984F79
:1000A0009093A6008093A50081E061E077D48091D1
:1000B000B8006AE0A1D490E08E010F5F1F4FB80135
:1000C0004AE050E0B9D4C80157D48091B8006AE042
:1000D00093D4892F90E0B8014AE050E0ADD4C80134
:1000E0004BD480E6E82E80E0F82EC70145D48091FD
:1000F000B7006AE081D48E010D5F1F4F90E0B80118
:100100004AE050E099D4C80137D48091B7006AE042
:1001100073D4892F90E0B8014AE050E08DD4C80133
:100120002BD4C70129D48E010B5F1F4F8091A500EE
:100130009091A600B8014AE050E07ED4C8011CD4DA
:1001400028960FB6F894DEBF0FBECDBFCF91DF91DA
:100150001F910F91FF90EF9008950F931F93DF93DE
:10016000CF93CDB7DEB76C970FB6F894DEBF0FBE56
:10017000CDBF8C018091A0009091A1009A838983CA
:100180009C838B839E838D8398878F839A878987AF
:100190009C878B879E878D87988B8F879A8B898B7F
:1001A0009C8B8B8B9E8B8D8B988F8F8B9A8F898F4F
:1001B0009C8F8B8F81E062E0F1D30430110509F44C
:1001C000B9C0053011056CF40230110509F44AC0BC
:1001D000033011050CF07AC00130110509F083C11C
:1001E0000DC00630110509F40DC1063011050CF4DF
:1001F000D5C00730110509F076C138C182E690E01C
:10020000BBD38CE062E0CAD38091A7006AE0F4D34C
:1002100090E08E010F5F1F4FB8014AE050E00CD410
:10022000C801AAD38091A7006AE0E6D3892F90E0A5
:10023000B8014AE050E000D4C8019ED38BE690E0BC
:100240009BD38091A8006AE0D7D38E010D5F1F4F2A
:1002500090E0B8014AE050E0EFD3C8018DD380911F
:10026000A80037C18DE690E087D38CE062E096D39A
:100270008091A9006AE0C0D38E010B5F1F4F90E010
:10028000B8014AE050E0D8D3C80176D38091A900E4
:100290006AE0B2D3892F90E0B8014AE050E0CCD3B5
:1002A000C8016AD38BE690E067D38091AA006AE028
:1002B000A3D38E01095F1F4F90E0B8014AE050E0E0
:1002C000BBD3C80159D38091AA0003C185E790E050
:1002D00053D38CE062E062D38091AB006AE08CD3B0
:1002E0008E01075F1F4F90E0B8014AE050E0A4D3B1
:1002F000C80142D38091AB006AE07ED3892F90E0A1
:10030000B8014AE050E098D3C80136D38BE690E0BC
:1003100033D38091AC006AE06FD38E01055F1F4F2D
:1003200090E0B8014AE050E087D3C80125D380911E
:10033000AC00CFC08EE790E01FD38CE062E02ED3FC
:100340008091AD006AE058D38E01035F1F4F90E0AB
:10035000B8014AE050E070D3C8010ED38091AD00DF
:100360006AE04AD3892F90E0B8014AE050E064D3B4
:10037000C80102D38BE690E0FFD28091AE006AE024
:100380003BD38E01015F1F4F90E0B8014AE050E07F
:1003900053D3C801F1D28091AE009BC086E890E0B3
:1003A000EBD28CE062E0FAD28091AF006AE024D315
:1003B0008E010F5E1F4F90E0B8014AE050E03CD341
:1003C000C801DAD28091AF006AE016D3892F90E09D
:1003D000B8014AE050E030D3C801CED28BE690E0BD
:1003E000CBD28091B0006AE007D38E010D5E1F4F23
:1003F00090E0B8014AE050E01FD3C801BDD280911F
:10040000B00067C08FE890E0B7D28CE062E0C6D25F
:100410008091B1006AE0F0D28E010B5E1F4F90E038
:10042000B8014AE050E008D3C801A6D28091B100DB
:100430006AE0E2D2892F90E0B8014AE050E0FCD2B5
:10044000C8019AD28BE690E097D28091B2006AE020
:10045000D3D28E01095E1F4F90E0B8014AE050E010
:10046000EBD2C80189D28091B20033C087E990E015
:1004700083D28CE062E092D28091B3006AE0BCD279
:100480008E01075E1F4F90E0B8014AE050E0D4D2E1
:10049000C80172D28091B3006AE0AED2892F90E099
:1004A000B8014AE050E0C8D2C80166D28BE690E0BD
:1004B00063D28091B4006AE09FD28E01055E1F4F27
:1004C00090E0B8014AE050E0B7D2C80155D280911F
:1004D000B4006AE091D2892F90E0B8014AE050E080
:1004E000ABD2C80149D26C960FB6F894DEBF0FBEEE
:1004F000CDBFCF91DF911F910F910895EF92FF92A1
:100500000F931F93DF93CF9300D000D0CDB7DEB70A
:1005100086EB90E067EB70E048EB50E029EB30E0D1
:100520000AEB10E0EBEBEE2EE0E0FE2E0DD18CE0BE
:1005300061E034D28091B9006AE05ED290E08E0131
:100540000F5F1F4FB8014AE050E076D2C80114D2C5
:100550008091B9006AE050D2892F90E0B8014AE05A
:1005600050E06AD2C80108D28BE690E005D28091B3
:10057000BA006AE041D28E010D5F1F4F90E0B801D2
:100580004AE050E059D2C801F7D18091BA006AE040
:1005900033D2892F90E0B8014AE050E04DD2C80133
:1005A000EBD18091BA00882329F48091B900882387
:1005B00009F463DD0F900F900F900F90CF91DF91B2
:1005C0001F910F91FF90EF9008950F931F93CF937A
:1005D000DF9314BA8FEF81BB87BB00D21FD1789411
:1005E0008DDF4BDDC1E0D0E008EC10E087DF18BA0A
:1005F00088E893E1F8013197F1F70197D9F78EE098
:1006000061E0CCD183EA90E0B7D1CE01A6DD21969E
:10061000C830D10514F0C1E0D0E088E893E1F801DA
:100620003197F1F70197D9F7E1CF282F6AE0E4D1AC
:1006300096E0899FC0011124820F0895282F50E071
:10064000E6E2F0E091E005C08491480F511D9F5F04
:1006500031969617C8F3633040F0822F90E0837094
:100660009070892B11F44F5F5F4F30E08DE691E081
:10067000BC01269FC001279F900D369F900D11242D
:1006800005962D5F3F4F3595279535952795820F18
:10069000931F840F951F67E070E0BAD10895BF9251
:1006A000CF92DF92EF92FF920F931F93D82EF62EE8
:1006B000142FB22EC02E0E2D0C3308F03CC08BE34D
:1006C0008C15C8F187E18217B0F14423A1F14032C3
:1006D00090F5662381F18CE0861768F183E68D152D
:1006E00050F1E62FF0E0EB5DFF4FE491E41710F4DA
:1006F00080E022C08D2DA2DFE82E80EDB7D080E013
:10070000DBD0802F92DFD8D08C2D8FDFD5D08B2DF2
:100710008CDFD2D08E2D89DFCFD0812F86DFCCD059
:100720008F2D83DFC9D08D2D80DFC6D080E0C4D06F
:10073000BDD081E001C088E01F910F91FF90EF9044
:10074000DF90CF90BF9008954F925F926F927F920B
:100750008F929F92AF92BF92CF92DF92EF92FF92D1
:100760000F931F932C013B014A015901680180ED51
:100770007DD080E0A1D09AD081ED96D0ABD08F779C
:10078000982F92959F700AEF1FEF909F902D112444
:10079000980FF70190839ED0982F92959F70909F0D
:1007A000902D1124980FF601908394D0982F929554
:1007B0009F70909F902D1124980FF50190838AD0FF
:1007C00089D0982F92959F70909F902D1124980F0B
:1007D000F40190837FD0982F92959F70909F902DD9
:1007E0001124980FF30190837CD0982F92959F70DD
:1007F000909F902D1124980FF201908357D01F9154
:100800000F91FF90EF90DF90CF90BF90AF909F90AF
:100810008F907F906F905F904F90089504D08AE101
:100820008A95F1F7089511B888E880B90895982F4E
:1008300084EA86BF06B607FEFDCF81B1887F883087
:1008400021F0803111F081E0089593B984E886BFEA
:1008500006B607FEFDCF91B1987F983111F480E084
:10086000089580E0903409F081E0089544EA34E886
:1008700024E946BF06B607FEFDCF91B1987F9830B8
:1008800011F09031B1F783B936BF06B607FEFDCF40
:1008900091B1987F903211F0983529F426BF06B6B1
:1008A00004FCFDCFE6CF0895C2DF089584E986BF3A
:1008B00006B604FCFDCF089583B984E886BF06B66A
:1008C00007FEFDCF81B190E0887F883209F091E08A
:1008D000892F089584EC86BF06B607FEFDCF83B14D
:1008E000089584E886BF06B607FEFDCF83B108955C
:1008F000929A92B3282F207F9F70292B22BB939A24
:1009000020ED37E0F9013197F1F79398F90131972C
:10091000F1F792B39F708295807F982B92BB939A48
:10092000C9010197F1F79398C9010197F1F780E0A8
:1009300090E00895929892B3282F207F9F70292BE2
:1009400022BB939A20ED37E0F9013197F1F79398A4
:10095000F9013197F1F792B39F708295807F982BC0
:1009600092BB939AC9010197F1F79398C901019736
:10097000F1F780E090E008951F93CF93DF93EC01AF
:1009800010E002C0B5DF1F5FFE01E10FF11D8081A5
:100990008823C1F7DF91CF911F910895DF93CF9303
:1009A00000D000D0CDB7DEB790E8998390EC9A8361
:1009B00094E99B8394ED9C838150FE01E60FF11D29
:1009C0009081890FB7DF88EC90E00197F1F70F90E5
:1009D0000F900F900F90CF91DF91089582E0AADFE2
:1009E00088E2A8DF8CE0A6DF81E0A4DF86E0A2DF5A
:1009F000089581E09FDF0895991B79E004C0991F55
:100A0000961708F0961B881F7A95C9F78095089568
:100A1000AA1BBB1B51E107C0AA1FBB1FA617B70724
:100A200010F0A61BB70B881F991F5A95A9F7809540
:100A30009095BC01CD010895FB019F01E8944230DF
:100A4000BCF04532ACF44A3029F497FB1EF4909583
:100A500081959F4F642F7727DBDF805D8A330CF011
:100A6000895D8193CB010097A9F716F45DE251935C
:100A70001082C90100C0DC01FC01672F719177234E
:100A8000E1F7329704C07C916D9370836291AE1749
:0A0A9000BF07C8F30895F894FFCFE4
:100A9A002F00445A554855522020003A00415348E5
:100AAA0041522020004D41474852494220004953B3
:100ABA00594120202000494D5359414B20200053D1
:100ACA00554255482020005445524249542020009E
:100ADA003030002000D0070C010F1711371308041B
:060AEA0022042C060500A9
:00000001FF
