:1000000012C028C018C017C016C015C014C013C035
:1000100012C011C010C00FC00EC00DC00CC00BC06C
:100020000AC009C008C011241FBECFE5D4E0DEBF5E
:10003000CDBF02D030C0E4CF80E48BBF81E085BF6C
:10004000789487BB18BAFECF80E48BBF81E085BF70
:10005000789408951F920F920FB60F9211242F9348
:100060003F938F939F93EF93FF9381E088BB80E250
:100070009EE428EC30E0F9013197F1F70197D9F7C8
:10008000FF91EF919F918F913F912F910F900FBE14
:0A0090000F901F901895F894FFCF11
:00000001FF
