:1000000012C021C020C01FC01EC01DC01CC01BC00C
:100010001AC019C018C01CC016C015C014C013C027
:1000200012C011C010C011241FBECFE5D4E0DEBF46
:10003000CDBF10E0A0E6B0E001C01D92A738B10727
:10004000E1F715D02EC0DCCF5F9BFECF8CB10895B9
:100050001F920F920FB60F9211248F938CB1809341
:1000600086008F910F900FBE0F901F901895899A60
:1000700010BC8FEC89B982E08BB988E98AB986E82F
:1000800080BD8FEF87BB4FEF20E931E05D9BFECF56
:100090004CB980E197E2F9013197F1F70197D9F76F
:0600A000F5CFF894FFCF3C
:00000001FF
