:1000000012C024C023C022C021C020C01FC01EC0F7
:100010001DC01CC01BC01AC019C018C017C016C014
:1000200015C014C013C011241FBECFE5D4E0DEBF3D
:10003000CDBF10E0A0E6B0E0E2E9F0E002C005903C
:100040000D92AA36B107D9F702D021C0D9CF899A2B
:1000500010BC83E389B982E08BB988E08AB986E86D
:1000600080BDE0E6F0E020E931E004C05D9BFECF1A
:1000700031968CB980818823C9F780E197E2F90134
:100080003197F1F70197D9F7E0E6F0E0F3CFF89474
:02009000FFCFA0
:0A00920048656C6C6F203A290000ED
:00000001FF
