:1000000018C032C031C030C02FC02EC01EC12CC09D
:100010002BC02AC029C028C027C026C025C024C0A4
:1000200023C022C021C01F1C1F1E1F1E1F1F1E1FFA
:100030001E1F11241FBECFE5D4E0DEBFCDBF10E0F0
:10004000A0E6B0E0E2E9F6E002C005900D92A43728
:10005000B107D9F710E0A4E7B0E001C01D92AC38B9
:10006000B107E1F73BD113C3CBCF9FEF97BB91BB58
:1000700081E084BB8EB588608EBD89B7806189BF01
:1000800098BB12BA88E893E128EC30E0F901319787
:10009000F1F70197D9F782B38E6F82BB18BA089532
:1000A00084E190E09BBD8ABD8EB582608EBD789460
:1000B00008958EB5887F8EBDF8940895DF93CF9311
:1000C0000F92CDB7DEB781E0898320E030E041E0D8
:1000D00012C0F901E458FF4F808188BB8981809567
:1000E00082BB8981880F89838981882309F44983A8
:1000F00018BA2F5F3F4F8091700090E028173907A2
:1001000044F30F90CF91DF910895CF93DF93FC01DB
:1001100040E0C0E0D0E014C0CF016AE070E0A3D2BC
:10012000242F220F220F02C0880F991F2A95E2F771
:10013000C82BD92BCF016AE070E095D2FB014F5F4D
:10014000309751F7CE01DF91CF910895EF92FF9252
:100150000F931F938C017B01D8DF8F708093740005
:10016000C801D3DF34E0969587953A95E1F78F7013
:1001700080937500C801C9DF9F7090937600C80115
:10018000C4DF92959F7090937700C701BEDF8F7098
:1001900080937800C701B9DF24E0969587952A956A
:1001A000E1F78F7080937900C701AFDF9F70909364
:1001B0007A00C701AADF92959F7090937B0080918F
:1001C0007400A0E6B0E0FD01E80FF11D808180938E
:1001D0007C0080917500FD01E80FF11D8081809306
:1001E0007D0080917600FD01E80FF11D80818093F4
:1001F0007E0080917700FD01E80FF11D80818093E2
:100200007F0080917800FD01E80FF11D80818093CF
:10021000800080917900FD01E80FF11D80818093BD
:10022000810080917A00FD01E80FF11D80818093AB
:10023000820080917B00A80FB11D8C918093830078
:100240001F910F91FF90EF9008951F920F920FB69C
:100250000F9211242F933F934F935F936F937F934C
:100260008F939F93AF93BF93EF93FF9327DFFF91FC
:10027000EF91BF91AF919F918F917F916F915F911E
:100280004F913F912F910F900FBE0F901F90189597
:10029000EF92FF920F931F9384E890E065E870E07F
:1002A00046E850E027E830E008E810E0E9E8EE2E04
:1002B000E0E0FE2EC2D08091880024E6829FC0013B
:1002C00011242091890060918700820F911D70E0B8
:1002D0003DDF1F910F91FF90EF9008951F93CF93F3
:1002E000DF93C3DED5DF84E190E09BBD8ABD8EB590
:1002F00082608EBD789411E0C8ECD0E0C9DF85B390
:10030000812785BB88EE93E0FE013197F1F70197D5
:10031000D9F7F4CF282F6AE09AD196E0899FC001DF
:100320001124820F0895282F50E081E090E0A62F3D
:10033000B0E007C0FC01EB5DFF4FE4914E0F511D93
:1003400001968A179B07B4F3633040F0822F90E048
:1003500083709070892B11F44F5F5F4F30E08DE612
:1003600091E0BC01269FC001279F900D369F900D04
:10037000112405962D5F3F4F359527953595279587
:10038000820F931F840F951F67E070E06CD1089572
:10039000BF92CF92DF92EF92FF920F931F93D82ECE
:1003A000F62E142FB22EC02E0E2D0C3308F03CC0AA
:1003B0008BE38C15C8F187E18217B0F14423A1F1DA
:1003C000403290F5662381F18CE0861768F183E670
:1003D0008D1550F1E62FF0E0EB5DFF4FE491E4174F
:1003E00010F480E022C08D2D9EDFE82E80EDEDD050
:1003F00080E011D1802F8EDF0ED18C2D8BDF0BD1C1
:100400008B2D88DF08D18E2D85DF05D1812F82DFEE
:1004100002D18F2D7FDFFFD08D2D7CDFFCD080E0DF
:10042000FAD0F3D081E001C088E01F910F91FF90D6
:10043000EF90DF90CF90BF9008954F925F926F92B0
:100440007F928F929F92AF92BF92CF92DF92EF9264
:10045000FF920F931F932C013B014A015901680140
:1004600080EDB3D080E0D7D0D0D081EDCCD0E1D03A
:100470008F77282F30E014E0359527951A95E1F70E
:100480000AEF1FEFA901409F9001419F300D509F3F
:10049000300D1124820FF7018083CBD0282F30E05C
:1004A000B4E035952795BA95E1F7A901409F9001F1
:1004B000419F300D509F300D1124820FF601808333
:1004C000B8D0282F30E0A4E035952795AA95E1F71C
:1004D000A901409F9001419F300D509F300D112484
:1004E000820FF5018083A5D0A4D0282F30E0F4E05E
:1004F00035952795FA95E1F7A901409F9001419F15
:10050000300D509F300D1124820FF401808391D063
:10051000282F30E0E4E035952795EA95E1F7A90129
:10052000409F9001419F300D509F300D1124820F4C
:10053000F301808385D0282F30E074E0359527952E
:100540007A95E1F7A901409F9001419F300D509F9E
:10055000300D1124820FF201808357D01F910F912B
:10056000FF90EF90DF90CF90BF90AF909F908F90D3
:100570007F906F905F904F90089504D08AE18A95A4
:10058000F1F7089511B888E880B90895982F84EAA2
:1005900086BF06B607FEFDCF81B1887F883021F087
:1005A000803111F081E0089593B984E886BF06B6E2
:1005B00007FEFDCF91B1987F983111F480E0089546
:1005C00080E0903409F081E0089544EA34E824E9B9
:1005D00046BF06B607FEFDCF91B1987F983011F067
:1005E0009031B1F783B936BF06B607FEFDCF91B1A2
:1005F000987F903211F0983529F426BF06B604FC96
:10060000FDCFE6CF0895C2DF089584E986BF06B620
:1006100004FCFDCF089583B984E886BF06B607FEC3
:10062000FDCF81B190E0887F883209F091E0892F79
:10063000089584EC86BF06B607FEFDCF83B108950A
:1006400084E886BF06B607FEFDCF83B10895991BE7
:1006500079E004C0991F961708F0961B881F7A95B9
:10066000C9F780950895AA1BBB1B51E107C0AA1FBB
:10067000BB1FA617B70710F0A61BB70B881F991F43
:100680005A95A9F780959095BC01CD010895F894ED
:02069000FFCF9A
:100692003F065B4F666D7D077F6F777C395E7971B0
:0406A20006D0070077
:00000001FF
