:1000000012C02CC02BC02AC029C028C027C026C0BF
:1000100025C03EC023C022C021C020C01FC01EC0BA
:100020001DC071C01BC011241FBECFE5D4E0DEBFD0
:10003000CDBF10E0A0E6B0E0EAE0F2E002C005903B
:100040000D92A037B107D9F710E0A0E7B0E001C0EA
:100050001D92A637B107E1F796D0D5C0D1CFF8945D
:10006000880F82B986B7856C86BF78940895F89416
:1000700016BE12B87894089590937500809374001A
:1000800083B7826083BF89B7816089BF7894089500
:100090001F920F920FB60F9211242F933F938F93BD
:1000A0009F93EF93FF938091710090917200209144
:1000B00074003091750001969093720080937100E6
:1000C000019782179307A0F080917300882381F035
:1000D000109272001092710080E090E0FC01E05AF2
:1000E000FF4F1082019680319105C1F71092730085
:1000F000FF91EF919F918F913F912F910F900FBEA4
:100100000F901F9018951F920F920FB60F92112407
:100110008F939F93EF93FF9381B190E0887F9070CE
:100120008038910531F0803A9105C1F0892BA1F01A
:100130001BC080917300803138F4E0917300F0E0CF
:1001400083B1E05AFF4F8083809173008F5F80936B
:10015000730086B7816C09C016BE06C016BE109229
:10016000730086B7856C01C085EC86BF82B394E0CE
:10017000892782BBFF91EF919F918F910F900FBEC6
:100180000F901F901895F89482E082B986B7856C1D
:1001900086BF78948FEF87BB84E081BB20E931E094
:1001A0008091600088BB88E893E1F9013197F1F70D
:1001B0000197D9F78091610088BB88E893E1F90144
:1001C0003197F1F70197D9F78091620088BB88E8F1
:1001D00093E1F9013197F1F70197D9F78091630025
:1001E00088BB88E893E1F9013197F1F70197D9F7D6
:1001F0008091640088BB88E893E1F9013197F1F7B9
:0A0200000197D9F7CDCFF894FFCF96
:10020A0001020405060708010204050607080000A2
:00000001FF
